:1000000000308A00DF2C0000FF00030E8301A600F1
:100010007F08A5000A08AD008A01A50E0408A70004
:100020002008A8002108A9002208AA002308AB0084
:100030002408AC00831383120B1E20288B1833284E
:10004000270884002808A0002908A1002A08A20087
:100050002B08A3002C08A4002D088A00260E83007C
:10006000FF0E7F0E09008A113D280A108A100A111E
:1000700082071C340C34013406340B138B138B1B96
:100080003E28C51045088316870083128710130881
:10009000073093008316140C031C4B28831213089B
:1000A00093018316140C031C522883121308E100D9
:1000B000C51045088316870083128714C5104508AC
:1000C0008316870083128710130827309300831646
:1000D000140C031C682883121308703093008316D5
:1000E000140C031C70288312C51045088316870062
:1000F00083128714611B7F280030A100AB28C51034
:100100004508831687008312871013086130930017
:100110008316140C031C89288312E0016008093C33
:10012000031CA02831306007840013089301831654
:10013000140C031C9828831213088000E00A8E28F0
:10014000C510450883168700831287148B10C030B2
:100150008B040130A1003010211830148B108A114B
:1001600020285730840000080319C4280130A1005A
:10017000A001A00BB928A10BB8284A30A000A00B01
:10018000BF28C228800BB62800345E18C928061282
:10019000CA280616831606128312DE18D128861284
:1001A000D22886168316861283125E19D928061362
:1001B000DA280617831606138312DE19E128861340
:1001C000E228861783168613000086108312861491
:1001D000E92883168610831286100034DF01831607
:1001E00086108312861400008316061683125F1091
:1001F000061A5F14831686168312DF10861ADF1420
:100200008316061783125F11061B5F158316861768
:100210008312DF11861BDF1583168610831286106A
:100220005F08A1000034831606118312061183169D
:100230008611831286150000EE202108DE00EE20D4
:100240002108DD005E0EA000F030A00520085D044E
:10025000A1002108DD00DD1B1729DB080319352962
:100260008316061183120615392983160611831287
:100270000611000083168611831286110000831672
:100280008610831286105C0EDD000F30DD055D08E0
:10029000DE00C5205C080F39DD00DE00C52000341B
:1002A0008316061183120611831686118312861196
:1002B00083168610831286100F30D700B120D40128
:1002C0005408023C031C6C290330DE00C5200530B5
:1002D000D700B120D40A60290230DE00C520D40145
:1002E0005408033C031C7D2954083520D500DB014C
:1002F0005508DC001321D40A70298A114D2D83166C
:1003000087100614071183129412C512450883162C
:100310008700831245164508831687008312C5118E
:10032000450883168700203083129400C03083165E
:100330009400831245114508831687008312071124
:10034000C5104508831687008312871013082A30CA
:1003500093008316140C031CAA29831213084B3034
:1003600093008316140C031CB22983121308C230A5
:1003700093008316140C031CBA2983121308C2308D
:1003800093008316140C031CC22983121308C23075
:1003900093008316140C031CCA2983121308C2305D
:1003A00093008316140C031CD2298312C510450830
:1003B0008316870083128714C510450883168700AB
:1003C000831287101308303093008316140C031C1B
:1003D000E629831213084B3093008316140C031C78
:1003E000EE2983121308C23093008316140C031CE9
:1003F000F62983121308C23093008316140C031CD1
:10040000FE2983121308C23093008316140C031CB8
:10041000062A83121308C23093008316140C031C9F
:100420000E2A8312C510450883168700831287148D
:10043000C5104508831687008312871013082130E2
:1004400093008316140C031C222A83121308013014
:1004500093008316140C031C2A2A8312C510450826
:100460008316870083128714C510450883168700FA
:10047000831287101308223093008316140C031C78
:100480003E2A83121308013093008316140C031CB8
:10049000462A8312C51045088316870083128714E5
:1004A000C510450883168700831287101308233070
:1004B00093008316140C031C5A2A8312130803306A
:1004C00093008316140C031C622A8312C51045087E
:1004D0008316870083128714C5104508831687008A
:1004E000831287101308243093008316140C031C06
:1004F000762A8312130893018316140C031C7D2A99
:100500008312C51045088316870083128714C5100F
:10051000450883168700831287101308053093005F
:100520008316140C031C912A831213086B3093005A
:100530008316140C031C992A8312C51045088316D0
:10054000870083128714C51045088316870083121D
:1005500087101308263093008316140C031CAD2A51
:1005600083121308263093008316140C031CB52A3B
:100570008312C51045088316870083128714C5109F
:1005800045088316870083128710130827309300CD
:100590008316140C031CC92A8312130870309300AD
:1005A0008316140C031CD12A8312C5104508831628
:1005B000870083128714C5104508831687008312AD
:1005C00087101308313093008316140C031CE52A9E
:1005D000831213080A3093008316140C031CED2AAF
:1005E0008312C51045088316870083128714C5102F
:1005F0004508831687008312871013082030930064
:100600008316140C031C012B831213080F30930064
:100610008316140C031C092B8312C510450883167E
:100620008700831287140230D700B1204511450896
:1006300083168700831207153130A000A00B1E2BF4
:10064000212B0B138B138B1B222B0B1683160113E1
:100650000614C03083128B048A114E2D56080C3AB2
:100660000319392B063A0319412B023A0319572B68
:100670005C2BDB010130DC0013210230D700B120FC
:10068000622B0130D7000230D800580B482B4B2B7F
:100690004030D9004C2BD90101305702D9075908F5
:1006A0008038DA00DB015A08DC001321622BDB0101
:1006B0001030DC001321622B0130DB005608DC0017
:1006C0001321622B00345708A101560203186B2B2B
:1006D0005608A000772BA0010830D800D60DA00D39
:1006E000570820020318A000A10DD80B6E2B003470
:1006F00021085408D6006430D70063232008D400B2
:1007000021083030031D8B2BD51C922BD519922B31
:10071000551A20308E2BD51155125514A1072108DA
:10072000D6002E235408D6000A30D70063232008B1
:10073000D40021083030031DA32BD519A72B551C3D
:10074000A72B551A2030A1072108D6002E233030C0
:10075000D4075408D6002E230034D51BBF2B0F30EE
:10076000A000540EA0050A3020020318BA2B303026
:10077000A007BC2B5508A0072008D6002E230F3059
:10078000D4050A3054020318C72B3030C92BD513B7
:100790005508D4075408D6002E23003445114508C7
:1007A0008316870083120711C5104508831687003A
:1007B000831287101308273093008316140C031C30
:1007C000DE2B83121308703093008316140C031C65
:1007D000E62B8312C5104508831687008312871401
:1007E000C510450883168700831287101308A030B0
:1007F00093008316140C031CFA2B8312D4015408A3
:10080000093C031C112C3B30540784000008D6001F
:10081000560893008316140C031C0B2C8312D40A65
:10082000FF2BC51045088316870083128714C51057
:100830004508831687008312871013082030930021
:100840008316140C031C212C831213080E30930002
:100850008316140C031C292C8312C510450883161B
:100860008700831287144511450883168700831279
:1008700007150430A000A00B3B2C3E2C4511450869
:100880008316870083120711AF01AE018316061489
:100890008312061C562CAE0A0319AF0A2E08903C90
:1008A000031D552C2F0B552C562C462CC5104508D6
:1008B000831687008312871013080730930083166E
:1008C000140C031C602C8312130893018316140C60
:1008D000031C672C83121308D500C5104508831626
:1008E000870083128714C51045088316870083127A
:1008F00087101308273093008316140C031C7D2CDB
:1009000083121308703093008316140C031C852C7B
:100910008312C51045088316870083128714C510FB
:10092000450883168700831287101308E13093006F
:100930008316140C031C992C8312C51045088316CA
:10094000870083128714C510450883168700831219
:1009500087101308203093008316140C031CAD2C51
:10096000831213080F3093008316140C031CB52C4C
:100970008312C5104508831687008312871445111A
:10098000450883168700831207153130A000A00B9D
:10099000C72CCA2C2E08F43C031DD72C2F0BD72CA8
:1009A0008B10C0308B040030A100DD2CDD2CC0305A
:1009B0008B048B100130A100DD2C8A113A2E8401AA
:1009C0001F30830583161F149F141F159F110730B6
:1009D0009C008312AE01AF013010B101B201B3012E
:1009E000B401B501B601B701B801B901BA01BB0143
:1009F000BC01BD01BE01BF01C001C101C201C301F3
:100A0000C401FF30C5000130CA000230CB00033002
:100A1000CC000430CD000530CE000630CF000730CA
:100A2000D0000830D100D201D30183161F149F14C7
:100A30001F159F1183121F109412C51245088316AB
:100A40008700831245164508831687008312C51157
:100A50004508831687000130831294000030831606
:100A600094000108C73908388100831290010030D2
:100A7000A100920000308316920007309C00050808
:100A800003308312A000A00B432D83161C08831291
:100A90000D1383169D01831250297F2945104508A7
:100AA00083168700831207140230D400FA30D7006F
:100AB000B120D40B562D45104508831687008312AC
:100AC00007100230D400FA30D700B120D40B632DC8
:100AD0004A08CA0ABB004B08CB0ABC004C08CC0A27
:100AE000BD004D08CD0ABE004E08CE0ABF004F081B
:100AF000CF0AC0005008D00AC1005108D10AC20074
:100B00005208D20AC3005308D30AC400C5104508CE
:100B1000831687008312871013080730930083160B
:100B2000140C031C902D8312130893018316140CCC
:100B3000031C972D83121308C600C51045088316A1
:100B4000870083128714C510450883168700831217
:100B50008710130893018316140C031CAC2D831209
:100B6000130893018316140C031CB32D831213086E
:100B7000C700C51045088316870083128714C51067
:100B800045088316870083128710130802309300EC
:100B90008316140C031CC92D8312130893018316AA
:100BA000140C031CD02D83121308C800C51045086F
:100BB0008316870083128714C510450883168700A3
:100BC0008312871013080A3093008316140C031C39
:100BD000E62D8312130893018316140C031CED2DCC
:100BE00083121308C900C5104508831687008312B5
:100BF00087140C30D6002E233108D4001B30D500CA
:100C000078232C30D6002E233208D4001B30D50098
:100C100078232C30D6002E233308D4001B30D50087
:100C200078232C30D6002E233408D4001B30D50076
:100C300078230A30D6002E234608D4003730D5005A
:100C4000AD232C30D6002E234708D4003730D500F2
:100C5000AD232C30D6002E234808D4003730D500E1
:100C6000AD232C30D6002E234908D4003730D500D0
:0E0C7000AD23CE2B3010211830144E2D630012
:02400E00313F40
:00000001FF
;PIC16F873A
